{
  "contractName": "Trace",
  "abi": [
    {
      "inputs": [],
      "payable": false,
      "stateMutability": "nonpayable",
      "type": "constructor"
    },
    {
      "constant": false,
      "inputs": [
        {
          "name": "addr",
          "type": "address"
        }
      ],
      "name": "addWhiteList",
      "outputs": [],
      "payable": false,
      "stateMutability": "nonpayable",
      "type": "function"
    },
    {
      "constant": false,
      "inputs": [
        {
          "name": "_id",
          "type": "uint256"
        },
        {
          "name": "_name",
          "type": "string"
        },
        {
          "name": "_actor",
          "type": "uint8"
        }
      ],
      "name": "newUser",
      "outputs": [
        {
          "name": "",
          "type": "bool"
        },
        {
          "name": "",
          "type": "string"
        }
      ],
      "payable": false,
      "stateMutability": "nonpayable",
      "type": "function"
    },
    {
      "constant": false,
      "inputs": [
        {
          "name": "vaccineId",
          "type": "uint256"
        },
        {
          "name": "vaccineName",
          "type": "string"
        },
        {
          "name": "vaccineAddress",
          "type": "string"
        },
        {
          "name": "timestamp",
          "type": "string"
        },
        {
          "name": "vaccineBatch",
          "type": "string"
        }
      ],
      "name": "newVaccine",
      "outputs": [
        {
          "name": "",
          "type": "bool"
        },
        {
          "name": "",
          "type": "string"
        }
      ],
      "payable": false,
      "stateMutability": "nonpayable",
      "type": "function"
    },
    {
      "constant": false,
      "inputs": [
        {
          "name": "vaccineId",
          "type": "uint256"
        },
        {
          "name": "timestamp",
          "type": "string"
        },
        {
          "name": "retailerAddress",
          "type": "string"
        }
      ],
      "name": "retailerInnerTransfer",
      "outputs": [
        {
          "name": "",
          "type": "bool"
        },
        {
          "name": "",
          "type": "string"
        }
      ],
      "payable": false,
      "stateMutability": "nonpayable",
      "type": "function"
    },
    {
      "constant": false,
      "inputs": [
        {
          "name": "vaccineId",
          "type": "uint256"
        },
        {
          "name": "timestamp",
          "type": "string"
        },
        {
          "name": "sellAddress",
          "type": "string"
        }
      ],
      "name": "fromRetailerToCustomer",
      "outputs": [
        {
          "name": "",
          "type": "bool"
        },
        {
          "name": "",
          "type": "string"
        }
      ],
      "payable": false,
      "stateMutability": "nonpayable",
      "type": "function"
    },
    {
      "constant": true,
      "inputs": [
        {
          "name": "vaccineId",
          "type": "uint256"
        }
      ],
      "name": "getVaccineRecords",
      "outputs": [
        {
          "name": "",
          "type": "bool"
        },
        {
          "name": "",
          "type": "string"
        },
        {
          "name": "producerName",
          "type": "string"
        },
        {
          "name": "produceTime",
          "type": "string"
        },
        {
          "name": "produceAddress",
          "type": "string"
        },
        {
          "name": "retailerNames",
          "type": "string[]"
        },
        {
          "name": "retailerTimes",
          "type": "string[]"
        },
        {
          "name": "retailerAddress",
          "type": "string[]"
        },
        {
          "name": "vaccineBatch",
          "type": "string"
        },
        {
          "name": "sellTime",
          "type": "string"
        },
        {
          "name": "sellAddress",
          "type": "string"
        },
        {
          "name": "vaccineName",
          "type": "string"
        }
      ],
      "payable": false,
      "stateMutability": "view",
      "type": "function"
    }
  ],
  "bytecode": "0x608060405234801561001057600080fd5b5033600560006101000a81548173ffffffffffffffffffffffffffffffffffffffff021916908373ffffffffffffffffffffffffffffffffffffffff160217905550600160046000600560009054906101000a900473ffffffffffffffffffffffffffffffffffffffff1673ffffffffffffffffffffffffffffffffffffffff1673ffffffffffffffffffffffffffffffffffffffff16815260200190815260200160002060006101000a81548160ff0219169083151502179055506118d9806100db6000396000f300608060405260043610610078576000357c0100000000000000000000000000000000000000000000000000000000900463ffffffff168063057b17bf1461007d578063362e0443146100bb578063a46e550c14610103578063d54e550614610141578063e7cd4a041461017f578063f21dddc7146101a8575b600080fd5b34801561008957600080fd5b506100a4600480360361009f9190810190611472565b6101e6565b6040516100b2929190611632565b60405180910390f35b3480156100c757600080fd5b506100e260048036036100dd9190810190611363565b6103bd565b6040516100fa9c9b9a99989796959493929190611662565b60405180910390f35b34801561010f57600080fd5b5061012a6004803603610125919081019061138c565b610bdd565b604051610138929190611632565b60405180910390f35b34801561014d57600080fd5b50610168600480360361016391908101906113f3565b610e2e565b604051610176929190611632565b60405180910390f35b34801561018b57600080fd5b506101a660048036036101a1919081019061133a565b611040565b005b3480156101b457600080fd5b506101cf60048036036101ca91908101906113f3565b61109b565b6040516101dd929190611632565b60405180910390f35b60006060600080600360008a81526020019081526020016000209150600082600001541415156102515760006040805190810160405280601c81526020017f5468652076616363696e65494420616c72656164792065786973742100000000815250935093506103b1565b6000803373ffffffffffffffffffffffffffffffffffffffff1673ffffffffffffffffffffffffffffffffffffffff16815260200190815260200160002090506000816000015414156102df5760006040805190810160405280601981526020017f5468652070726f647563657220646f6e27742065786973742100000000000000815250935093506103b1565b8882600001819055508782600101908051906020019061030092919061117c565b508482600201908051906020019061031992919061117c565b508682600501908051906020019061033292919061117c565b508582600401908051906020019061034b92919061117c565b50806001018260080190805460018160011615610100020316600290046103739291906111fc565b5060016040805190810160405280601d81526020017f537563636573732c70726f647563652061206e65772076616363696e65000000815250935093505b50509550959350505050565b600060608060608060608060608060608060606000600360008f8152602001908152602001600020905060008160000154141561045d5760008b8b8b8b8b8b8b8b8b8b6040805190810160405280601c81526020017f54686520636f6d6d6f646974794944206973206e6f7420657869737400000000815250999897969594939291909c509c509c509c509c509c509c509c509c509c509c509c50610bcd565b600181600801826004018360050184600a0185600301866009018760020188600601896007018a6001016040805190810160405280600781526020017f737563636573730000000000000000000000000000000000000000000000000081525099989796959493929190898054600181600116156101000203166002900480601f01602080910402602001604051908101604052809291908181526020018280546001816001161561010002031660029004801561055c5780601f106105315761010080835404028352916020019161055c565b820191906000526020600020905b81548152906001019060200180831161053f57829003601f168201915b50505050509950888054600181600116156101000203166002900480601f0160208091040260200160405190810160405280929190818152602001828054600181600116156101000203166002900480156105f85780601f106105cd576101008083540402835291602001916105f8565b820191906000526020600020905b8154815290600101906020018083116105db57829003601f168201915b50505050509850878054600181600116156101000203166002900480601f0160208091040260200160405190810160405280929190818152602001828054600181600116156101000203166002900480156106945780601f1061066957610100808354040283529160200191610694565b820191906000526020600020905b81548152906001019060200180831161067757829003601f168201915b5050505050975086805480602002602001604051908101604052809291908181526020016000905b82821015610778578382906000526020600020018054600181600116156101000203166002900480601f0160208091040260200160405190810160405280929190818152602001828054600181600116156101000203166002900480156107645780601f1061073957610100808354040283529160200191610764565b820191906000526020600020905b81548152906001019060200180831161074757829003601f168201915b5050505050815260200190600101906106bc565b50505050965085805480602002602001604051908101604052809291908181526020016000905b8282101561085b578382906000526020600020018054600181600116156101000203166002900480601f0160208091040260200160405190810160405280929190818152602001828054600181600116156101000203166002900480156108475780601f1061081c57610100808354040283529160200191610847565b820191906000526020600020905b81548152906001019060200180831161082a57829003601f168201915b50505050508152602001906001019061079f565b50505050955084805480602002602001604051908101604052809291908181526020016000905b8282101561093e578382906000526020600020018054600181600116156101000203166002900480601f01602080910402602001604051908101604052809291908181526020018280546001816001161561010002031660029004801561092a5780601f106108ff5761010080835404028352916020019161092a565b820191906000526020600020905b81548152906001019060200180831161090d57829003601f168201915b505050505081526020019060010190610882565b505050509450838054600181600116156101000203166002900480601f0160208091040260200160405190810160405280929190818152602001828054600181600116156101000203166002900480156109d95780601f106109ae576101008083540402835291602001916109d9565b820191906000526020600020905b8154815290600101906020018083116109bc57829003601f168201915b50505050509350828054600181600116156101000203166002900480601f016020809104026020016040519081016040528092919081815260200182805460018160011615610100020316600290048015610a755780601f10610a4a57610100808354040283529160200191610a75565b820191906000526020600020905b815481529060010190602001808311610a5857829003601f168201915b50505050509250818054600181600116156101000203166002900480601f016020809104026020016040519081016040528092919081815260200182805460018160011615610100020316600290048015610b115780601f10610ae657610100808354040283529160200191610b11565b820191906000526020600020905b815481529060010190602001808311610af457829003601f168201915b50505050509150808054600181600116156101000203166002900480601f016020809104026020016040519081016040528092919081815260200182805460018160011615610100020316600290048015610bad5780601f10610b8257610100808354040283529160200191610bad565b820191906000526020600020905b815481529060010190602001808311610b9057829003601f168201915b505050505090509c509c509c509c509c509c509c509c509c509c509c509c505b5091939597999b5091939597999b565b600060606000806002811115610bef57fe5b846002811115610bfb57fe5b1415610c46576000803373ffffffffffffffffffffffffffffffffffffffff1673ffffffffffffffffffffffffffffffffffffffff1681526020019081526020016000209050610d52565b60016002811115610c5357fe5b846002811115610c5f57fe5b1415610cab57600160003373ffffffffffffffffffffffffffffffffffffffff1673ffffffffffffffffffffffffffffffffffffffff1681526020019081526020016000209050610d51565b600280811115610cb757fe5b846002811115610cc357fe5b1415610d0f57600260003373ffffffffffffffffffffffffffffffffffffffff1673ffffffffffffffffffffffffffffffffffffffff1681526020019081526020016000209050610d50565b60006040805190810160405280601781526020017f746865206163746f72206973206e6f742062656c6f6e6700000000000000000081525092509250610e25565b5b5b60008160000154141515610da15760006040805190810160405280601981526020017f7468697320696420686173206265656e206f636375706965640000000000000081525092509250610e25565b85816000018190555084816001019080519060200190610dc292919061117c565b50838160020160006101000a81548160ff02191690836002811115610de357fe5b021790555060016040805190810160405280600781526020017f5375636365737300000000000000000000000000000000000000000000000000815250925092505b50935093915050565b60006060600080600360008881526020019081526020016000209150600082600001541415610e985760006040805190810160405280601a81526020017f5468652076616363696e65494420646f6e27742065786973742100000000000081525093509350611036565b600160003373ffffffffffffffffffffffffffffffffffffffff1673ffffffffffffffffffffffffffffffffffffffff1681526020019081526020016000209050600081600001541415610f275760006040805190810160405280601981526020017f5468652072657461696c657220646f6e2774206578697374210000000000000081525093509350611036565b81600301869080600181540180825580915050906001820390600052602060002001600090919290919091509080519060200190610f6692919061117c565b505081600a01816001019080600181540180825580915050906001820390600052602060002001600090919290919091509080546001816001161561010002031660029004610fb69291906111fc565b505081600901859080600181540180825580915050906001820390600052602060002001600090919290919091509080519060200190610ff792919061117c565b505060016040805190810160405280600781526020017f5375636365737300000000000000000000000000000000000000000000000000815250935093505b5050935093915050565b6001600460008373ffffffffffffffffffffffffffffffffffffffff1673ffffffffffffffffffffffffffffffffffffffff16815260200190815260200160002060006101000a81548160ff02191690831515021790555050565b6000606060006003600087815260200190815260200160002090506000816000015414156111045760006040805190810160405280601a81526020017f5468652076616363696e65494420646f6e27742065786973742100000000000081525092509250611173565b8481600601908051906020019061111c92919061117c565b508381600701908051906020019061113592919061117c565b5060016040805190810160405280601581526020017f537563636573732c486173206265656e20736f6c640000000000000000000000815250925092505b50935093915050565b828054600181600116156101000203166002900490600052602060002090601f016020900481019282601f106111bd57805160ff19168380011785556111eb565b828001600101855582156111eb579182015b828111156111ea5782518255916020019190600101906111cf565b5b5090506111f89190611283565b5090565b828054600181600116156101000203166002900490600052602060002090601f016020900481019282601f106112355780548555611272565b8280016001018555821561127257600052602060002091601f016020900482015b82811115611271578254825591600101919060010190611256565b5b50905061127f9190611283565b5090565b6112a591905b808211156112a1576000816000905550600101611289565b5090565b90565b60006112b48235611809565b905092915050565b60006112c88235611829565b905092915050565b600082601f83011215156112e357600080fd5b81356112f66112f182611796565b611769565b9150808252602083016020830185838301111561131257600080fd5b61131d83828461184c565b50505092915050565b60006113328235611842565b905092915050565b60006020828403121561134c57600080fd5b600061135a848285016112a8565b91505092915050565b60006020828403121561137557600080fd5b600061138384828501611326565b91505092915050565b6000806000606084860312156113a157600080fd5b60006113af86828701611326565b935050602084013567ffffffffffffffff8111156113cc57600080fd5b6113d8868287016112d0565b92505060406113e9868287016112bc565b9150509250925092565b60008060006060848603121561140857600080fd5b600061141686828701611326565b935050602084013567ffffffffffffffff81111561143357600080fd5b61143f868287016112d0565b925050604084013567ffffffffffffffff81111561145c57600080fd5b611468868287016112d0565b9150509250925092565b600080600080600060a0868803121561148a57600080fd5b600061149888828901611326565b955050602086013567ffffffffffffffff8111156114b557600080fd5b6114c1888289016112d0565b945050604086013567ffffffffffffffff8111156114de57600080fd5b6114ea888289016112d0565b935050606086013567ffffffffffffffff81111561150757600080fd5b611513888289016112d0565b925050608086013567ffffffffffffffff81111561153057600080fd5b61153c888289016112d0565b9150509295509295909350565b6000611554826117cf565b8084526020840193508360208202850161156d856117c2565b60005b848110156115a65783830388526115888383516115fc565b9250611593826117f0565b9150602088019750600181019050611570565b508196508694505050505092915050565b6115c0816117fd565b82525050565b60006115d1826117e5565b8084526115e581602086016020860161185b565b6115ee8161188e565b602085010191505092915050565b6000611607826117da565b80845261161b81602086016020860161185b565b6116248161188e565b602085010191505092915050565b600060408201905061164760008301856115b7565b818103602083015261165981846115c6565b90509392505050565b600061018082019050611678600083018f6115b7565b818103602083015261168a818e6115c6565b9050818103604083015261169e818d6115c6565b905081810360608301526116b2818c6115c6565b905081810360808301526116c6818b6115c6565b905081810360a08301526116da818a611549565b905081810360c08301526116ee8189611549565b905081810360e08301526117028188611549565b905081810361010083015261171781876115c6565b905081810361012083015261172c81866115c6565b905081810361014083015261174181856115c6565b905081810361016083015261175681846115c6565b90509d9c50505050505050505050505050565b6000604051905081810181811067ffffffffffffffff8211171561178c57600080fd5b8060405250919050565b600067ffffffffffffffff8211156117ad57600080fd5b601f19601f8301169050602081019050919050565b6000602082019050919050565b600081519050919050565b600081519050919050565b600081519050919050565b6000602082019050919050565b60008115159050919050565b600073ffffffffffffffffffffffffffffffffffffffff82169050919050565b600060038210151561183a57600080fd5b819050919050565b6000819050919050565b82818337600083830152505050565b60005b8381101561187957808201518184015260208101905061185e565b83811115611888576000848401525b50505050565b6000601f19601f83011690509190505600a265627a7a72305820b14e27f2ca7211e0041f11ec82528e14805939746b9bac50492df58285dbf1d96c6578706572696d656e74616cf50037",
  "source": "pragma solidity ^0.4.24;\npragma experimental ABIEncoderV2;\n                                         \ncontract Trace {\n    enum Actor{Producer,Retailer,Customer}\n    enum Phase{Producer,Retailer,Customer}\n    \n    struct User{\n        uint id;\n        string name;\n        Actor actor;\n    }\n    struct Vaccine{\n        uint vaccine_id;\n        string vaccine_name;\n        string vaccine_batch;\n        string[] timestamps;\n        string produce_time;\n        string produce_address;\n        string sell_time;\n        string sell_address;\n        string producer_name;\n        string[] retailer_address;\n        string[] retailer_name;\n        bool isBinding;\n        address owner;\n    }\n    \n    mapping(address=>User) producerMap;\n    mapping(address=>User) retailerMap;\n    mapping(address=>User) customerMap;\n    mapping(uint=>Vaccine) vaccineMap;\n    mapping(address=>bool) whiteList;\n    address owner;\n    \n    constructor() public{\n        owner = msg.sender;\n        whiteList[owner] = true;\n    }\n    \n    function addWhiteList(address addr) public{\n        whiteList[addr] = true;\n    }\n    \n    function newUser(uint _id,string _name,Actor _actor) public returns(bool,string){\n        User user;\n        if(_actor == Actor.Producer){\n            user = producerMap[msg.sender];\n        }else if(_actor == Actor.Retailer){\n            user = retailerMap[msg.sender];\n        }else if(_actor == Actor.Customer){\n            user = customerMap[msg.sender];\n        }else{\n            return (false,\"the actor is not belong\");\n        }\n        \n        if(user.id!=0){\n            return (false,'this id has been occupied');\n        }\n        user.id = _id;\n        user.name = _name;\n        user.actor = _actor;\n        return (true,'Success');\n    }\n    \n     // this interface just for producer\n    function newVaccine(uint vaccineId, string vaccineName,string vaccineAddress,\n    string timestamp,string vaccineBatch) public returns(bool,string){\n        Vaccine vaccine = vaccineMap[vaccineId];\n        if(vaccine.vaccine_id != 0){\n            return (false,\"The vaccineID already exist!\");\n        }\n        User user = producerMap[msg.sender];\n        if(user.id == 0) {\n            return (false,\"The producer don't exist!\");\n        }\n        vaccine.vaccine_id = vaccineId;\n        vaccine.vaccine_name = vaccineName;\n        vaccine.vaccine_batch = vaccineBatch;\n        vaccine.produce_address = vaccineAddress;\n        vaccine.produce_time = timestamp;\n        vaccine.producer_name = user.name;\n       \n        return (true,\"Success,produce a new vaccine\");\n    }\n    \n    // this interface just for retailer\n    function retailerInnerTransfer(uint vaccineId,string timestamp,string retailerAddress) public returns(bool, string){\n        Vaccine vaccine = vaccineMap[vaccineId];\n        if(vaccine.vaccine_id == 0){\n             return (false,\"The vaccineID don't exist!\");\n        }\n        User user = retailerMap[msg.sender];\n        if(user.id == 0) {\n            return (false,\"The retailer don't exist!\");\n        }\n        vaccine.timestamps.push(timestamp);\n        vaccine.retailer_name.push(user.name);\n        vaccine.retailer_address.push(retailerAddress);\n        return (true,\"Success\");\n    }\n    \n    function fromRetailerToCustomer(uint vaccineId,string timestamp,string sellAddress) public returns(bool, string){\n        Vaccine vaccine = vaccineMap[vaccineId];\n        if(vaccine.vaccine_id == 0){\n            return (false,\"The vaccineID don't exist!\");\n        }\n        vaccine.sell_time = timestamp;\n        vaccine.sell_address = sellAddress;\n        return (true,\"Success,Has been sold\");\n    }\n    \n    // just for get vaccine message\n    function getVaccineRecords(uint vaccineId) public view returns(bool,string,\n    string producerName,string produceTime, string produceAddress,string[] retailerNames,string[] retailerTimes\n    , string[] retailerAddress,string vaccineBatch,string sellTime,string sellAddress,string vaccineName){\n        Vaccine vaccine = vaccineMap[vaccineId];\n        if(vaccine.vaccine_id == 0){\n            return (false,\"The commodityID is not exist\",producerName, produceTime, produceAddress,\n            retailerNames, retailerTimes,retailerAddress,vaccineBatch,sellTime,sellAddress,vaccineName);\n        }\n        return (true,\"success\",vaccine.producer_name,vaccine.produce_time,vaccine.produce_address,\n        vaccine.retailer_name,vaccine.timestamps,vaccine.retailer_address,vaccine.vaccine_batch,\n        vaccine.sell_time,vaccine.sell_address,vaccine.vaccine_name);\n       \n    }\n    \n    // // just for Supervision organization\n    // function getVaccineRecordsByWhiteList(uint vaccineId) returns(bool,string,\n    // string producerName,uint produceTime, string[] retailerNames,uint[] retailerTimes\n    // , string customerName,uint sellTime){\n    //     if(!whiteList[msg.sender]){\n    //         return (false,\"you has no access\",producerName, produceTime, retailerNames, retailerTimes, customerName,sellTime);\n    //     }\n    //     Vaccine vaccine = vaccineMap[vaccineId];\n    //     if(vaccine.vaccine_id == 0){\n    //         return (false,\"The commodityID is not exist\",producerName, produceTime, retailerNames, retailerTimes,customerName,sellTime);\n    //     }\n    //     return (true,\"success\",vaccine.producer_name,vaccine.produce_time,vaccine.retailer_name,vaccine.timestamps,vaccine.customer_name,vaccine.sell_time);\n       \n    // }\n    \n    // function getVaccine(uint vaccineId,Actor _actor)  returns(bool,string,\n    // string producerName,uint produceTime,string[] retailerNames,uint[] retailerTimes\n    // , string customerName,uint sellTime){\n    //     Vaccine vaccine = vaccineMap[vaccineId];\n    //     if(vaccine.vaccine_id == 0){\n    //         return (false,\"The vaccineID is not exist\",producerName,produceTime,\n    //         retailerNames,retailerTimes,customerName,sellTime);\n    //     }\n    //     User user;\n    //     if(_actor == Actor.Producer){\n    //         user = producerMap[msg.sender];\n    //     }else if(_actor == Actor.Retailer){\n    //         user = retailerMap[msg.sender];\n    //     }else if(_actor == Actor.Customer){\n    //         user = customerMap[msg.sender];\n    //     }else{\n    //         return (false,\"the actor is not belong\",producerName,produceTime,\n    //         retailerNames,retailerTimes,customerName,sellTime);\n    //     }\n    //     if(vaccine.isBinding){\n    //         if(vaccine.owner != msg.sender){\n    //             return (false,\"warning,this vaccine has been bound\",producerName,produceTime,\n    //         retailerNames,retailerTimes,customerName,sellTime);\n    //         }else{\n    //             (false,\"has already bind\",vaccine.producer_name,vaccine.retailer_name,vaccine.customer_name);\n               \n    //         }\n    //     }\n    //     if(vaccine.sell_time > 0 ) {\n    //         vaccine.isBinding = true;\n    //         vaccine.owner = msg.sender;\n    //         vaccine.customer_name = user.name;\n    //     }\n    //     return (true,\"success\",vaccine.producer_name,vaccine.produce_time,vaccine.retailer_name,vaccine.timestamps,vaccine.customer_name,vaccine.sell_time);\n    // }\n}\n    \n    \n",
  "sourcePath": "/Users/luyi/Desktop/trace/trace-client/src/contracts/Trace.sol",
  "compiler": {
    "name": "solc",
    "version": "0.4.24+commit.e67f0147.Emscripten.clang"
  },
  "schemaVersion": "3.0.16",
  "updatedAt": "2020-04-04T06:49:03.302Z",
  "devdoc": {
    "methods": {}
  },
  "userdoc": {
    "methods": {}
  }
}